:02000002D0002C
:1040000000400D0068520D00000006000C00050184
:084010000401BD0B00000000DB
:0440180024500D0023
:10401C0009480A49884208B505D0094A824202D0AB
:10402C00121A00F0B7FF0748074A0021121A00F0D5
:10403C00BFFF014808BD00BFC4E50320D4510D00EB
:10404C0030E6032030E60320F0E7032070B5074E7E
:10405C00074C00F0E1FBA41BA4080025A54200D1ED
:10406C0070BD56F8043B98470135F7E7AC510D008D
:10407C00D0510D0000F01BB808B500F029F8BDE8D0
:10408C00084000F08BBB00F031BA00F037BA007872
:10409C00B0FA80F04009704701230370704710B5E7
:1040AC000446006808B100F029FA204610BD08B596
:1040BC000121052000F0C8FE00210E2000F0C4FEF6
:1040CC0000F0B0FCBDE808404FF4165100F09EBC67
:1040DC0037B50E2000F0C9FE144C208000F0A2FC75
:1040EC00218805460A2200F0DCFA284600F0CDFAB9
:1040FC000F4B20881A88824238BF02461A800D4B1B
:10410C001988814228BF01461980FF2300930023A0
:10411C0000F0FEFA81B2052000F0BEFE4FF496705E
:10412C0003B0BDE8304000F0FFBA00BF42E6032008
:10413C0040E60320C4E5032038B50A4C0A4BA360C3
:10414C00002503202560A580A57100F03BF90749E7
:10415C00074A204600F006FF29460120BDE83840FA
:10416C0000F040B934E603200000FFFFAB400D0027
:10417C0030E6032008B5024B1B689B68019308BD11
:10418C006802030008B5024B1B68DB68019308BD8D
:10419C006802030008B5024B1B685B68019308BDFD
:1041AC002C02030008B5024B1B689B68019308BDE9
:1041BC002C02030008B5024B1B68DB68019308BD99
:1041CC002C02030008B5024B1B689B6A019308BDC7
:1041DC002C02030008B5024B1B681B6B019308BD36
:1041EC002C02030008B5024B1B689B6F019308BDA2
:1041FC002C02030008B5024B1B685B68019308BDD9
:10420C001802030008B5024B1B685B69019308BDDB
:10421C001802030008B5024B1B685B6C019308BDC8
:10422C004802030008B5024B1B689B6C019308BD48
:10423C004802030008B5024B1B685B69019308BD7B
:10424C006402030008B5024B1B681B68019308BD90
:10425C003C02030008B5024B1B68DB68019308BDE8
:10426C003C02030008B5024B1B681B69019308BD97
:10427C003C02030008B5024B1B685B69019308BD47
:10428C003C02030008B5024B1B689B69019308BDF7
:10429C003C02030008B5024B1B68DB69019308BDA7
:1042AC003C02030008B5024B1B681B6A019308BD56
:1042BC003C02030008B5024B1B689B6A019308BDC6
:1042CC003C02030008B5024B1B681B6A019308BD36
:1042DC002802030008B5024B1B685B6A019308BDFA
:1042EC002802030008B5024B1B689B6A019308BDAA
:1042FC002802030008B5024B1B68DB6A019308BD5A
:10430C002802030008B5024B1B681B6B019308BD08
:10431C002802030008B5024B1B685B6B019308BDB8
:10432C002802030008B5024B1B681B6C019308BDE7
:10433C002802030008B5024B1B68DB69019308BD1A
:10434C003002030008B5024B1B681B6A019308BDC1
:10435C003002030008B5024B1B681B68019308BDB3
:10436C004C02030008B5024B1B685B68019308BD47
:10437C004C02030008B5024B1B681B69019308BD76
:10438C004C02030008B5024B1B685B69019308BD26
:10439C004C02030008B5024B1B689B69019308BDD6
:1043AC004C02030008B5024B1B68DB69019308BD86
:1043BC004C02030008B5024B1B681B6A019308BD35
:1043CC004C02030008B5024B1B685B68019308BDE7
:1043DC002002030008B5024B1B685B69019308BD02
:1043EC002002030008B5024B1B68DB6A019308BD71
:1043FC002002030008B5034B1B68D3F888300193E7
:10440C0008BD00002002030008B5034B1B68D3F85D
:10441C009430019308BD00002002030008B5024B44
:10442C001B685B68019308BD4002030008B5024B92
:10443C001B689B68019308BD4002030008B5024B42
:10444C001B68DB68019308BD4002030008B5024BF2
:10445C001B681B69019308BD4002030008B5024BA1
:10446C001B685B69019308BD4002030008B5024B51
:10447C001B689B69019308BD4002030008B5024B01
:10448C001B68DB69019308BD4002030008B5024BB1
:10449C001B681B6A019308BD4002030008B5024B60
:1044AC001B681B6B019308BD4002030008B5024B4F
:1044BC001B685B6B019308BD4002030008B5024BFF
:1044CC001B681B6C019308BD4002030008B5024B2E
:1044DC001B685B6C019308BD4002030008B5024BDE
:1044EC001B68DB6B019308BD4402030008B5024B4B
:1044FC001B681B68019308BD1C02030008B5024B26
:10450C001B685B68019308BD1C02030008B5024BD5
:10451C001B685B6C019308BD1C0203000022406801
:10452C001146FFF7B3BF002240681146FFF7BEBF2C
:10453C0040680022FFF7B2BF4068002281F0010101
:10454C00FFF79CBF002340681A461946FFF78EBF41
:10455C00002340681A461946FFF780BF00224068C6
:10456C001146FFF773BF002240681146FFF75EBF8C
:10457C00406800220221FFF761BF002340681A4601
:10458C00FFF74CBF024B03225A60024A1A60704775
:10459C0044E6032040500D0010B504460846217037
:1045AC00FFF7C8FE00236360204610BD10B5094B11
:1045BC00094C022200201A60084B2060A080A071D8
:1045CC00A360FFF7FFFE2046054A0649BDE81040F0
:1045DC0000F0C8BC58E603204CE603200000FFFFA7
:1045EC0030E60320AB400D0010B50446006808B15E
:1045FC00FFF718FE204610BD10B58368044613B1B2
:10460C00032201469847204610BD000010B5064C09
:10461C00002320462360FFF7FDFD2046034A044992
:10462C00BDE8104000F09EBC5CE6032030E60320A1
:10463C00F5450D00F8B506460D468F180024BD4211
:10464C000CD0336815F8011B9B6830469847031E45
:10465C0001DB1C44F3E7002C08BF1C462046F8BDC8
:10466C0013B50446084659B1019100F0CDFC2368FE
:10467C000199DB680246204602B0BDE8104018479D
:10468C0002B010BD03689B68184738B50D2105466C
:10469C00FFF7F8FF0A2104462846FFF7F3FF2044F2
:1046AC0038BD30B58BB000238DF82430012A98BF6B
:1046BC000A2209AC0D46B1FBF2F101FB125303F0D7
:1046CC00FF03092B94BF30333733DBB2AA4204F813
:1046DC00013DEFD92146FFF7C3FF0BB030BD0023DE
:1046EC0040681A461946FFF7B9BE0000014B024A52
:1046FC001A60704760E6032074500D00024B1A6874
:10470C00024B1A60704700BFC8E5032064E6032023
:10471C008A4210B507D0029C401AE41A6043521A20
:10472C0090FBF2F0184410BD0021FFF753BE10B5FA
:10473C000446FFF761FF204610BD00000348044A01
:10474C0004490023836000F00DBC00BF68E6032021
:10475C0030E603203B470D00014B1860704700BF4B
:10476C00CCE5032008B50B4B43B100F05BF90368B3
:10477C001B699847002801DDAFF30080064B43B15D
:10478C0000F0CEF903681B699847002801DDAFF3F0
:10479C00008008BD000000000000000008B5FFF715
:1047AC00E1FFFFF72FFD014B186008BDD4E7032094
:1047BC000248034A0349121A00F0ECBB00F4032030
:1047CC0004F40320D0510D0007B5002300931A46C2
:1047DC006FF07701FFF718FE03B05DF804FB0000E3
:1047EC0007B543880A2B08D0502B0BD1094B1B68FB
:1047FC004BB103B05DF804EB1847FFF7E5FF03B0CE
:10480C005DF804FB002300931A466FF07701FFF765
:10481C00FBFDF4E77CE6032038B5124C1248134D2F
:10482C000021FFF773FE2368AB42114B0CBF012232
:10483C0000221A7002D0FFF7BBFF2560FFF7DAFCED
:10484C00044600F0BDFB0B4B13B12046AFF30080C8
:10485C0000210848FFF742FEBDE838400648002119
:10486C00FFF7C8BD00F4032065470D001E1C279AF6
:10487C0078E6032000000000ED470D00704710B5EE
:10488C001821044600F073FB204610BDF0B5037DE3
:10489C00062B8DB00E4600F104074FF0000412D029
:1048AC0000F1080515F8011D0A223046FFF7F9FE44
:1048BC00AF42044419D0002CF4D02E213046FFF71F
:1048CC00E1FE0444EEE72F236A4639460A208DF8B0
:1048DC000040FFF7AFFC684600F096FB33680246D9
:1048EC00DB68694630469847044620460DB0F0BD5B
:1048FC0010B5054B0446112240F8043B002100F092
:10490C0057FB204610BD00BF9C500D000346074AC4
:10491C0010B543F8042B01F1100251F8044B43F885
:10492C00044B9142F9D10A781A7010BD9C500D00BD
:10493C0010B59DF8084044EA032343EA024242EAD8
:10494C00016104234160037510BD000013B5054BD4
:10495C000360CB7800938B784A780978FFF7E8FFEF
:10496C0002B010BD9C500D0041747047704708B5E3
:10497C000021007CFFF70EFD40EAE07008BD08B591
:10498C000121007CFFF706FD40EAE07008BD08B588
:10499C00007CFFF7F7FC20EAE07008BD08B5007C4E
:1049AC00FFF7E8FC20EAE07008BD13B50446007C74
:1049BC000191FFF7E7FC0028019901DC607C20B134
:1049CC00207CFFF7EFFC20EAE07002B010BD007C09
:1049DC00FFF7F0BC10B51421044600F0C8FA2046CD
:1049EC0010BD000010B54FF47A7304460846002140
:1049FC00C4E90113044B2360012320746374114632
:104A0C00FFF7A8FC204610BDB0500D00007C002222
:104A1C00FFF7A8BC10B514220446002100F0C8FA18
:104A2C00204610BD10B5104C88B003A8FFF7F2FF5C
:104A3C002178BFF35B8F11F0010111D12046019158
:104A4C00FFF725FB019958B103AA0848FFF7CAFFE5
:104A5C002046FFF721FB064A0649044800F082FA7B
:104A6C00024808B010BD00BF80E6032084E6032096
:104A7C0030E6032079490D0070474174704708B542
:104A8C00007CFFF717FC20EAE07008BD08B5007C3D
:104A9C00FFF7E8FB20EAE07008BD08B5007CFFF7E3
:104AAC00F1FB40EAE07008BD08B5007CFFF7E2FBC3
:104ABC0040EAE07008BD007CFFF7ECBB37B5457CE5
:104ACC0004462DB1207C03B0BDE83040FFF7C2BBDB
:104ADC00007C0191FFF7EEFB00280199F2DC2846DF
:104AEC0003B030BD10B51421044600F040FA204646
:104AFC0010BD000010B54FF0000C044608461146DE
:104B0C004FF47A72C4E901C2044A22600122207473
:104B1C0062741A46FFF796FB204610BDE0500D005C
:104B2C0013B50E4C2178BFF35B8F11F0010112D13C
:104B3C0020460191FFF7ABFA019960B1084A094B85
:104B4C000948FFF7D7FF2046FFF7A6FA074A08499E
:104B5C00054800F007FA044802B010BD98E603209F
:104B6C009CE6032020E70320A4E7032030E6032083
:104B7C00854A0D007047F8B5064615460C468F1849
:104B8C00BC4206D0336814F8011B9B68304698472A
:104B9C00F6E72846F8BD007C0022FFF793BB007CAB
:104BAC000021FFF797BB007C0021FFF79BBB007C2B
:104BBC000021FFF79FBB007C0021FFF7A3BB10B5C2
:104BCC001421044600F0D3F9204610BD10B54FF463
:104BDC007A73044608460021C4E90113034B236091
:104BEC0020741146FFF79EFB204610BD10510D009E
:104BFC00002240681146FFF729BC0022406811468C
:104C0C00FFF744BC002240681146FFF74FBC4068D8
:104C1C000022FFF743BC4068002281F00101FFF73E
:104C2C002DBC002340681A461946FFF71FBC002212
:104C3C0040681146FFF7FABB406800220221FFF7DB
:104C4C00FDBB002340681A46FFF7E8BB024B042269
:104C5C005A60024A1A607047B8E7032038510D00B9
:104C6C00002340681A46FFF7D9BB40680022022196
:104C7C00FFF7E4BB002240681146FFF7D7BB0022C8
:104C8C0040681146FFF7E2BB002340681A461946FC
:104C9C00FFF7E4BB002340681A461946FFF7E6BB52
:104CAC0040680021FFF70ABC40680021FFF70EBCEA
:104CBC004068002281F00101FFF7E0BB4068002250
:104CCC00FFF7ECBB002240681146FFF7EFBB002258
:104CDC0040681146FFF7DABB2DE9F043002495B08C
:104CEC0016460D460746FFF703FE214618220EA86E
:104CFC00009400F05DF94023CDE90C3421466B465D
:104D0C000CAA3046FFF73EFA044600284CD1024666
:104D1C0001216868FFF79AFB0221804622466868E9
:104D2C00FFF794FB009E81462146002E3CD00029C3
:104D3C003AD17368022B03D00A2B11D0F669F4E731
:104D4C00B8F1000F0AD0716906A8043107ADFFF75E
:104D5C00FDFD0FCD3C1D0FC42B6823704146EDE7C4
:104D6C00B9F1000F01D14946E8E77469102201A896
:104D7C0000F01EF906238DF8143001AD04F1080380
:104D8C001834186859682A4603C20833A3421546DA
:104D9C00F7D101A906A807ADFFF7B8FD0FCD3C1D53
:104DAC000FC42B682370DEE70098FFF7E3F9384651
:104DBC0015B0BDE8F0830000024B034A1A600022D4
:104DCC005A607047C0E7032074510D00232813B5B7
:104DDC0002D9002002B010BDA0F10B03022B1AD88F
:104DEC00174C2178BFF35B8F11F001010BD12046DA
:104DFC000191FFF74CF9019928B11248FFF7CCFB50
:104E0C002046FFF749F90F4B1878FFF79BFA00285B
:104E1C00DFD10120DEE7012809D800F07BF8002162
:104E2C00007CFFF777FA80F00100C0B2D2E70938B6
:104E3C000128EED8FFF774FE007CFFF733FAF2E797
:104E4C00C8E70320CCE70320232838B504460D46D9
:104E5C000AD8FF2908D0FFF7B9FF28B12946204608
:104E6C00BDE83840FFF79EB938BD0D2810B5044693
:104E7C009CBF0E34A4B22046FFF7A8FF50B103210B
:104E8C002046FFF787F9032804D12046BDE81040DF
:104E9C00FFF7A0B9002010BD38B504460D46FFF74A
:104EAC0095FFF0B104212046FFF774F9042805D1D1
:104EBC00A9B22046BDE83840FFF784B9022120464C
:104ECC00FFF768F902280CD12046FFF773F9012887
:104EDC0001D0042805D129462046BDE83840FFF70B
:104EEC0081B938BD38B500232025438014230446EE
:104EFC000380856005610649284600F03AF80449AC
:104F0C006060284600F035F8E060204638BD00BFF0
:104F1C00A8510D0030B50F4D2978BFF35B8F11F000
:104F2C00010487B013D12846FFF7B1F878B101A876
:104F3C00FFF7D8FF01AA21460748FFF747FE28468E
:104F4C00FFF7AAF8054A0649034800F00BF8024897
:104F5C0007B030BDD8E70320DCE7032030E60320A0
:104F6C00814B0D000B460146184600F005B8FFF7C3
:104F7C008CB8FFF788B8000010B5054C13462CB15F
:104F8C000A4601460220AFF3008010BD2046FCE724
:104F9C00000000000A44914200F1FF3300D1704739
:104FAC0010B511F8014B03F8014F9142F9D110BD26
:104FBC0002440346934200D1704703F8011BF9E702
:104FCC0038B50D4B1D68AB6B04467BB91820FFF749
:104FDC008DFA0A4A0A4BA863C0E90023094B836087
:104FEC000B23838101220023C0E90423AB6B002235
:104FFC001C615A6138BD00BFCCE503200E33CDAB2C
:10500C0034126DE6ECDE0500034613F8012B002A82
:10501C00FBD1181A013870471D400D0059400D0086
:10502C0081400D0085400D000000000000000000D4
:10503C000000000087450D007D450D0073450D00F7
:10504C0069450D005D450D0051450D00AD4C0D0041
:10505C00B54C0D0045450D003D450D0033450D008B
:10506C0029450D00E54C0D006170700025592D256A
:10507C006D2D25645425483A254D3A2553257A0043
:10508C0061736374696D650000000000000000002E
:10509C0099480D0089480D008B480D000000000058
:1050AC000000000079490D00E1490D00B7490D00E1
:1050BC0041460D00A9490D007B490D008B490D009F
:1050CC00DB490D009B490D0075490D0000000000E7
:1050DC0000000000854A0D00F14A0D00C94A0D0080
:1050EC0041460D00994A0D00B54A0D00A74A0D0026
:1050FC00C34A0D00874A0D008B4A0D0000000000CA
:10510C0000000000814B0D00CB4B0D00A34B0D009C
:10511C00834B0D00AB4B0D00B34B0D00BB4B0D0087
:10512C00C34B0D0000000000000000004F4C0D00B0
:10513C00454C0D003B4C0D00FD4B0D00EB460D009E
:10514C002F4C0D00AD4C0D00B54C0D00234C0D003B
:10515C001B4C0D00114C0D00074C0D00E54C0D00C7
:10516C0000000000000000006D4C0D00774C0D009D
:10517C00814C0D008B4C0D00954C0D00A14C0D007D
:10518C00AD4C0D00B54C0D00BD4C0D00C94C0D00C7
:10519C00D14C0D00DB4C0D00E54C0D000000000067
:1051AC0045410D0091450D00B9450D0019460D0006
:1051BC00F9460D0009470D0049470D00594C0D00EB
:0451CC00C54D0D00C0
:0451D00000000000DB
:1051D400001000008C500D00D0E5032000000000FA
:1051E40000000000000000000000000000000000BB
:1051F40000000000000000000000000000000000AB
:10520400000000000000000000000000000000009A
:10521400000000000000000000000000000000008A
:10522400000000000000000000000000000000007A
:0C5234000000000000000000000000006E
:10524000FFFFFFFF00000102030405060708090A2B
:105250000B0C0D0E0F101112131415161718191A26
:085260001B1C1D1E1F2028006D
:04526800785634122E
:04000003D000401CCD
:00000001FF
